:100000000C9434000C9451000C9451000C94510049
:100010000C9451000C9451000C9451000C9451001C
:100020000C9451000C9451000C9451000C9451000C
:100030000C9451000C9451000C9451000C945100FC
:100040000C9451000C9451000C9451000C945100EC
:100050000C9451000C9451000C9451000C945100DC
:100060000C9451000C94510011241FBECFEFD8E026
:10007000DEBFCDBF11E0A0E0B1E0E4E2F1E002C0FC
:1000800005900D92A830B107D9F721E0A8E0B1E0C2
:1000900001C01D92AE30B207E1F70E9453000C94EC
:1000A00090000C940000259A8AB18E6F8AB930E2D4
:1000B00010920D01E0E011C015B82FEF83ED90E331
:1000C000215080409040E1F700C00000E0910D0118
:1000D000EF5FE0930D01E83058F72E2F2695269517
:1000E00020930A019E2F969590930901E0930801B1
:1000F000822F89238E23922B9823892F90E090932F
:100100000C0180930B01F0E0E050FF4F80818BB930
:1001100080910B0190910C01019771F635B9CDCF0B
:04012000F894FFCF81
:08012400029E240C9848401EC5
:00000001FF
