:100000000C945C000C9479000C9479000C947900A9
:100010000C9479000C9479000C9479000C9479007C
:100020000C9479000C9479000C9479000C9479006C
:100030000C9479000C9479000C9479000C9479005C
:100040000C940B010C9479000C9479000C947900B9
:100050000C9479000C9479000C9479000C9479003C
:100060000C9479000C947900000000080002010053
:100070000003040700000000000000000000000072
:10008000250028002B0000000000240027002A0083
:10009000040404040404040402020202020203032E
:1000A0000303030301020408102040800102040836
:1000B000102001020408102011241FBECFEFD8E049
:1000C000DEBFCDBF11E0A0E0B1E0E0E3F4E002C0AC
:1000D00005900D92A032B107D9F721E0A0E2B1E07E
:1000E00001C01D92A932B207E1F70E9455010C949C
:1000F00016020C94000090E0FC01EC55FF4F249197
:1001000080579F4FFC018491882399F090E0880FDD
:10011000991FFC01EA57FF4FA591B491FC01E458E7
:10012000FF4F859194918FB7F894EC91E22BEC936B
:100130008FBF089590E0FC01E859FF4F2491FC0126
:10014000EC55FF4F3491FC01E057FF4FE491EE2353
:10015000C9F0222339F0233001F1A8F4213019F13C
:10016000223029F1F0E0EE0FFF1FE458FF4FA59178
:10017000B4918FB7F894EC91611126C030953E236D
:100180003C938FBF08952730A9F02830C9F0243060
:1001900049F7809180008F7D03C0809180008F7728
:1001A00080938000DFCF84B58F7784BDDBCF84B5AB
:1001B0008F7DFBCF8091B0008F778093B000D2CF3E
:1001C0008091B0008F7DF9CF3E2BDACF3FB7F89406
:1001D0008091250190912601A0912701B0912801DD
:1001E00026B5A89B05C02F3F19F00196A11DB11D92
:1001F0003FBFBA2FA92F982F8827BC01CD01620FCE
:10020000711D811D911D42E0660F771F881F991F88
:100210004A95D1F708951F920F920FB60F921124AD
:100220002F933F938F939F93AF93BF93809121011F
:1002300090912201A0912301B091240130912001DD
:1002400023E0230F2D3758F50196A11DB11D2093F2
:1002500020018093210190932201A0932301B09368
:1002600024018091250190912601A0912701B09150
:1002700028010196A11DB11D8093250190932601AF
:10028000A0932701B0932801BF91AF919F918F91C7
:100290003F912F910F900FBE0F901F90189526E859
:1002A000230F0296A11DB11DD2CF789484B5826030
:1002B00084BD84B5816084BD85B5826085BD85B50A
:1002C000816085BD80916E00816080936E00109288
:1002D0008100809181008260809381008091810003
:1002E0008160809381008091800081608093800094
:1002F0008091B10084608093B1008091B0008160F2
:100300008093B00080917A00846080937A0080911D
:100310007A00826080937A0080917A008160809375
:100320007A0080917A00806880937A001092C100F0
:1003300083E00E947B0084E00E947B0084E00E94B6
:100340007B0085E00E947B0086E00E947B0087E0C6
:100350000E947B0088E00E947B0089E00E947B0075
:100360008CE00E947B0020E0E22E20E0F22E00E0F4
:1003700011E0C0E1D1E0D12CC12C688179810C2C35
:1003800002C0759567950A94E2F7617083E08C0D61
:100390000E949A002FEFC21AD20A87E0C816D10431
:1003A00061F7F801619171918F01CB0183709927F9
:1003B0000397D1F5769567957695679561708CE092
:1003C0000E949A000E94E6002B013C0188EE882ED4
:1003D00083E0982EA12CB12C0E94E60064197509C7
:1003E00086099709683E734081059105A8F3F1E0FD
:1003F0008F1A9108A108B10828EE420E23E0521E80
:10040000611C711C81149104A104B10429F7229686
:10041000F1E0C032DF0709F0AECFE114F10409F4D6
:10042000A6CF0E940000A3CF60E0C9CFF894FFCF11
:1004300000000100020003000400050006000700A0
:1004400040007900240030001900120002007800FA
:00000001FF
