:020000020000FC
:100000000FEF0DBF08E00EBF0EEF0AB900E304B911
:1000100005E005BD20E02BB997E048E0E6E7F0E019
:100020004A9515D0D2F316D067235623550F550F96
:10003000550F550F550F55B932E301D0F1CF05B328
:1000400012E00123E1F315BB3A95C9F70895159124
:100050001BB90895592F541B5170B52E692F641B7D
:1000600062706695C62E792F741B7470769576959E
:10007000D72E08950895029E240C9848401E00082B
:0600800010C062846070F4
:00000001FF
