:100000000C9434000C9451000C9451000C94510049
:100010000C9451000C9451000C9451000C9451001C
:100020000C9451000C9451000C9451000C9451000C
:100030000C9451000C9451000C9451000C945100FC
:100040000C9451000C9451000C9451000C945100EC
:100050000C9451000C9451000C9451000C945100DC
:100060000C9451000C94510011241FBECFEFD8E026
:10007000DEBFCDBF11E0A0E0B1E0ECE1F1E002C0F5
:1000800005900D92A830B107D9F721E0A8E0B1E0C2
:1000900001C01D92AE30B207E1F70E9453000C94EC
:1000A0008C000C940000259A8AB18E6F8AB920E2E8
:1000B00010920D01E0E011C015B83FEF83ED90E321
:1000C000315080409040E1F700C00000E0910D0108
:1000D000EF5FE0930D01E83058F79E2F96959695C7
:1000E00090930A018E2F869580930901E093080171
:1000F00089238E2390E090930C0180930B01F0E014
:10010000E050FF4F80818BB980910B0190910C01E1
:0C011000019791F625B9D1CFF894FFCFEC
:08011C00029E240C9848401ECD
:00000001FF
