:020000020000FC
:100000000FEF0DBF08E00EBF0EEF0AB9209A05E012
:1000100005BD20E02BB925B997E048E0E4E8F0E021
:1000200020E025B94A951AD0C2F31BD0852F8095C0
:10003000862B652B852378236723660F660F660F53
:10004000660F660F65B932E301D0EACF05B312E05F
:100050000123E1F315BB3A95C9F7089515911BB932
:100060000895592F541B5170B52E692F641B62706F
:100070006695C62E792F741B747076957695D72E5B
:1000800008950895029E240C9848401E000810C050
:0400900062846070B6
:00000001FF
