:020000020000FC
:100000000FEF0DBF08E00EBF0EEF0AB9209A05E012
:1000100005BD20E02BB925B997E048E0EAE7F0E01C
:1000200020E025B94A9515D0C2F316D0DC20BD20BA
:10003000BB0CBB0CBB0CBB0CBB0CB5B832E301D08A
:10004000EFCF05B312E00123E1F315BB3A95C9F7F1
:10005000089515911BB90895592F541B5170B52E51
:10006000692F641B62706695C62E792F741B74709D
:1000700076957695D72E08950895029E240C98487B
:0A008000401E000810C0628460708A
:00000001FF
